{
  "contractName": "Credit",
  "abi": [
    {
      "inputs": [],
      "stateMutability": "nonpayable",
      "type": "constructor"
    },
    {
      "inputs": [
        {
          "internalType": "address",
          "name": "",
          "type": "address"
        }
      ],
      "name": "initialized",
      "outputs": [
        {
          "internalType": "bool",
          "name": "",
          "type": "bool"
        }
      ],
      "stateMutability": "view",
      "type": "function",
      "constant": true
    },
    {
      "inputs": [],
      "name": "owner",
      "outputs": [
        {
          "internalType": "address",
          "name": "",
          "type": "address"
        }
      ],
      "stateMutability": "view",
      "type": "function",
      "constant": true
    },
    {
      "inputs": [],
      "name": "initializeAccount",
      "outputs": [],
      "stateMutability": "nonpayable",
      "type": "function"
    },
    {
      "inputs": [
        {
          "internalType": "address",
          "name": "recepient",
          "type": "address"
        },
        {
          "internalType": "uint256",
          "name": "creditAmount",
          "type": "uint256"
        }
      ],
      "name": "TransferCredit",
      "outputs": [],
      "stateMutability": "nonpayable",
      "type": "function"
    },
    {
      "inputs": [
        {
          "internalType": "address",
          "name": "creditor",
          "type": "address"
        }
      ],
      "name": "GetcreditBalance",
      "outputs": [
        {
          "internalType": "uint256",
          "name": "",
          "type": "uint256"
        }
      ],
      "stateMutability": "view",
      "type": "function",
      "constant": true
    },
    {
      "inputs": [
        {
          "internalType": "address",
          "name": "receipient",
          "type": "address"
        },
        {
          "internalType": "uint256",
          "name": "creditamount",
          "type": "uint256"
        }
      ],
      "name": "mint",
      "outputs": [],
      "stateMutability": "nonpayable",
      "type": "function"
    }
  ],
  "bytecode": "0x608060405234801561001057600080fd5b506103e8600160003373ffffffffffffffffffffffffffffffffffffffff1673ffffffffffffffffffffffffffffffffffffffff16815260200190815260200160002081905550336000806101000a81548173ffffffffffffffffffffffffffffffffffffffff021916908373ffffffffffffffffffffffffffffffffffffffff16021790555061094b806100a66000396000f3fe608060405234801561001057600080fd5b50600436106100625760003560e01c80633b48c4041461006757806340c10f1914610083578063615123551461009f57806378a0a439146100a95780638da5cb5b146100d9578063cbca47db146100f7575b600080fd5b610081600480360381019061007c91906105ea565b610127565b005b61009d600480360381019061009891906105ea565b610259565b005b6100a7610397565b005b6100c360048036038101906100be919061062a565b6104c4565b6040516100d09190610666565b60405180910390f35b6100e161050d565b6040516100ee9190610690565b60405180910390f35b610111600480360381019061010c919061062a565b610531565b60405161011e91906106c6565b60405180910390f35b80600160003373ffffffffffffffffffffffffffffffffffffffff1673ffffffffffffffffffffffffffffffffffffffff1681526020019081526020016000205410156101a9576040517f08c379a00000000000000000000000000000000000000000000000000000000081526004016101a09061073e565b60405180910390fd5b80600160003373ffffffffffffffffffffffffffffffffffffffff1673ffffffffffffffffffffffffffffffffffffffff16815260200190815260200160002060008282546101f8919061078d565b9250508190555080600160008473ffffffffffffffffffffffffffffffffffffffff1673ffffffffffffffffffffffffffffffffffffffff168152602001908152602001600020600082825461024e91906107c1565b925050819055505050565b60008054906101000a900473ffffffffffffffffffffffffffffffffffffffff1673ffffffffffffffffffffffffffffffffffffffff163373ffffffffffffffffffffffffffffffffffffffff16146102e7576040517f08c379a00000000000000000000000000000000000000000000000000000000081526004016102de90610863565b60405180910390fd5b80600160008473ffffffffffffffffffffffffffffffffffffffff1673ffffffffffffffffffffffffffffffffffffffff168152602001908152602001600020600082825461033691906107c1565b9250508190555080600160003373ffffffffffffffffffffffffffffffffffffffff1673ffffffffffffffffffffffffffffffffffffffff168152602001908152602001600020600082825461038c919061078d565b925050819055505050565b600260003373ffffffffffffffffffffffffffffffffffffffff1673ffffffffffffffffffffffffffffffffffffffff16815260200190815260200160002060009054906101000a900460ff1615610424576040517f08c379a000000000000000000000000000000000000000000000000000000000815260040161041b906108f5565b60405180910390fd5b6103e8600160003373ffffffffffffffffffffffffffffffffffffffff1673ffffffffffffffffffffffffffffffffffffffff168152602001908152602001600020819055506001600260003373ffffffffffffffffffffffffffffffffffffffff1673ffffffffffffffffffffffffffffffffffffffff16815260200190815260200160002060006101000a81548160ff021916908315150217905550565b6000600160008373ffffffffffffffffffffffffffffffffffffffff1673ffffffffffffffffffffffffffffffffffffffff168152602001908152602001600020549050919050565b60008054906101000a900473ffffffffffffffffffffffffffffffffffffffff1681565b60026020528060005260406000206000915054906101000a900460ff1681565b600080fd5b600073ffffffffffffffffffffffffffffffffffffffff82169050919050565b600061058182610556565b9050919050565b61059181610576565b811461059c57600080fd5b50565b6000813590506105ae81610588565b92915050565b6000819050919050565b6105c7816105b4565b81146105d257600080fd5b50565b6000813590506105e4816105be565b92915050565b6000806040838503121561060157610600610551565b5b600061060f8582860161059f565b9250506020610620858286016105d5565b9150509250929050565b6000602082840312156106405761063f610551565b5b600061064e8482850161059f565b91505092915050565b610660816105b4565b82525050565b600060208201905061067b6000830184610657565b92915050565b61068a81610576565b82525050565b60006020820190506106a56000830184610681565b92915050565b60008115159050919050565b6106c0816106ab565b82525050565b60006020820190506106db60008301846106b7565b92915050565b600082825260208201905092915050565b7f496e73756666696369656e742063726564697473000000000000000000000000600082015250565b60006107286014836106e1565b9150610733826106f2565b602082019050919050565b600060208201905081810360008301526107578161071b565b9050919050565b7f4e487b7100000000000000000000000000000000000000000000000000000000600052601160045260246000fd5b6000610798826105b4565b91506107a3836105b4565b9250828210156107b6576107b561075e565b5b828203905092915050565b60006107cc826105b4565b91506107d7836105b4565b9250827fffffffffffffffffffffffffffffffffffffffffffffffffffffffffffffffff0382111561080c5761080b61075e565b5b828201905092915050565b7f4f6e6c79206f776e657220616e2063616c6c20746869732066756e6374696f6e600082015250565b600061084d6020836106e1565b915061085882610817565b602082019050919050565b6000602082019050818103600083015261087c81610840565b9050919050565b7f4163636f756e742068617320616c7265616479206265656e20696e697469616c60008201527f697a656400000000000000000000000000000000000000000000000000000000602082015250565b60006108df6024836106e1565b91506108ea82610883565b604082019050919050565b6000602082019050818103600083015261090e816108d2565b905091905056fea264697066735822122083fc77c5b209c87c818e3c0fe3c6dbf078a1aaf9404edc9a4c9691f6c88fa11464736f6c634300080f0033",
  "immutableReferences": {},
  "source": " // SPDX-License-Identifier: MIT\r\n\r\npragma solidity >=0.5.0 <0.9.0;\r\n\r\ncontract Credit{\r\n\r\n    constructor(){\r\n        Balance[msg.sender]= 1000;\r\n        owner= msg.sender;\r\n    }\r\n    address public owner;\r\n    mapping(address=> uint) private Balance;\r\n    mapping(address => bool) public initialized;\r\n\r\n\r\n    modifier OnlyOwner(){\r\n        require(msg.sender== owner, \"Only owner an call this function\");\r\n        _;\r\n    }\r\n\r\n\r\n    function initializeAccount() public {\r\n    require(!initialized[msg.sender], \"Account has already been initialized\");\r\n    Balance[msg.sender] = 1000;\r\n    initialized[msg.sender] = true;\r\n}\r\n\r\n    function TransferCredit(address recepient, uint creditAmount) public {\r\n        require(Balance[msg.sender] >= creditAmount, \"Insufficient credits\");\r\n        Balance[msg.sender]-= creditAmount;\r\n        Balance[recepient]+= creditAmount;\r\n\r\n    }\r\n\r\n    function GetcreditBalance(address creditor) view public returns(uint){\r\n        return Balance[creditor];\r\n    } \r\n\r\n    function mint(address receipient, uint creditamount) public OnlyOwner(){\r\n    \r\n     Balance[receipient]+= creditamount;\r\n     Balance[msg.sender]-=creditamount;\r\n    }\r\n\r\n\r\n\r\n\r\n\r\n}\r\n",
  "sourcePath": "D:\\Shivam projects\\CREDITSystem\\QDark-Credit-System\\contracts\\CreditSystem.sol",
  "compiler": {
    "name": "solc",
    "version": "0.8.15+commit.e14f2714.Emscripten.clang"
  },
  "schemaVersion": "3.4.13",
  "updatedAt": "2023-06-19T09:05:40.725Z",
  "networkType": "ethereum",
  "devdoc": {
    "kind": "dev",
    "methods": {},
    "version": 1
  },
  "userdoc": {
    "kind": "user",
    "methods": {},
    "version": 1
  }
}